{
  "address": "0x844a256728c380a1825FbEEbE5cb01c72bac971A",
  "abi": [
    {
      "inputs": [],
      "name": "ZamaProtocolUnsupported",
      "type": "error"
    },
    {
      "anonymous": false,
      "inputs": [
        {
          "indexed": true,
          "internalType": "address",
          "name": "user",
          "type": "address"
        },
        {
          "indexed": false,
          "internalType": "uint256",
          "name": "timestamp",
          "type": "uint256"
        }
      ],
      "name": "PortfolioUpdated",
      "type": "event"
    },
    {
      "anonymous": false,
      "inputs": [
        {
          "indexed": true,
          "internalType": "address",
          "name": "user",
          "type": "address"
        },
        {
          "indexed": false,
          "internalType": "enum MultiAssetAnalyzer.StressScenario",
          "name": "scenario",
          "type": "uint8"
        }
      ],
      "name": "StressTestCompleted",
      "type": "event"
    },
    {
      "anonymous": false,
      "inputs": [
        {
          "indexed": true,
          "internalType": "address",
          "name": "user",
          "type": "address"
        },
        {
          "indexed": false,
          "internalType": "string",
          "name": "alertType",
          "type": "string"
        }
      ],
      "name": "ThresholdAlert",
      "type": "event"
    },
    {
      "inputs": [],
      "name": "MAX_ASSETS",
      "outputs": [
        {
          "internalType": "uint8",
          "name": "",
          "type": "uint8"
        }
      ],
      "stateMutability": "view",
      "type": "function"
    },
    {
      "inputs": [
        {
          "internalType": "address",
          "name": "",
          "type": "address"
        }
      ],
      "name": "alerts",
      "outputs": [
        {
          "internalType": "bool",
          "name": "",
          "type": "bool"
        }
      ],
      "stateMutability": "view",
      "type": "function"
    },
    {
      "inputs": [
        {
          "internalType": "externalEuint32[]",
          "name": "encryptedVolatilities",
          "type": "bytes32[]"
        },
        {
          "internalType": "bytes[]",
          "name": "proofs",
          "type": "bytes[]"
        }
      ],
      "name": "calculateRiskExposure",
      "outputs": [
        {
          "internalType": "euint32",
          "name": "",
          "type": "bytes32"
        }
      ],
      "stateMutability": "nonpayable",
      "type": "function"
    },
    {
      "inputs": [],
      "name": "calculateTotalValue",
      "outputs": [
        {
          "internalType": "euint32",
          "name": "",
          "type": "bytes32"
        }
      ],
      "stateMutability": "nonpayable",
      "type": "function"
    },
    {
      "inputs": [
        {
          "internalType": "externalEuint32",
          "name": "encryptedTotalValue",
          "type": "bytes32"
        },
        {
          "internalType": "externalEuint32",
          "name": "encryptedRiskExposure",
          "type": "bytes32"
        },
        {
          "internalType": "bytes[2]",
          "name": "proofs",
          "type": "bytes[2]"
        }
      ],
      "name": "checkThresholds",
      "outputs": [
        {
          "internalType": "bool",
          "name": "alertTriggered",
          "type": "bool"
        }
      ],
      "stateMutability": "nonpayable",
      "type": "function"
    },
    {
      "inputs": [],
      "name": "confidentialProtocolId",
      "outputs": [
        {
          "internalType": "uint256",
          "name": "",
          "type": "uint256"
        }
      ],
      "stateMutability": "view",
      "type": "function"
    },
    {
      "inputs": [
        {
          "internalType": "address",
          "name": "user",
          "type": "address"
        }
      ],
      "name": "getAlertStatus",
      "outputs": [
        {
          "internalType": "bool",
          "name": "",
          "type": "bool"
        }
      ],
      "stateMutability": "view",
      "type": "function"
    },
    {
      "inputs": [
        {
          "internalType": "address",
          "name": "user",
          "type": "address"
        }
      ],
      "name": "getAssetCount",
      "outputs": [
        {
          "internalType": "uint8",
          "name": "",
          "type": "uint8"
        }
      ],
      "stateMutability": "view",
      "type": "function"
    },
    {
      "inputs": [
        {
          "internalType": "address",
          "name": "",
          "type": "address"
        }
      ],
      "name": "portfolios",
      "outputs": [
        {
          "internalType": "uint8",
          "name": "assetCount",
          "type": "uint8"
        },
        {
          "internalType": "uint256",
          "name": "lastUpdate",
          "type": "uint256"
        }
      ],
      "stateMutability": "view",
      "type": "function"
    },
    {
      "inputs": [
        {
          "internalType": "enum MultiAssetAnalyzer.StressScenario",
          "name": "scenario",
          "type": "uint8"
        },
        {
          "internalType": "externalEuint32[]",
          "name": "encryptedShockPrices",
          "type": "bytes32[]"
        },
        {
          "internalType": "bytes[]",
          "name": "proofs",
          "type": "bytes[]"
        }
      ],
      "name": "runStressTest",
      "outputs": [
        {
          "internalType": "euint32",
          "name": "encryptedStressValue",
          "type": "bytes32"
        },
        {
          "internalType": "euint32",
          "name": "encryptedVaR",
          "type": "bytes32"
        },
        {
          "internalType": "euint32",
          "name": "encryptedCVaR",
          "type": "bytes32"
        }
      ],
      "stateMutability": "nonpayable",
      "type": "function"
    },
    {
      "inputs": [
        {
          "internalType": "externalEuint32",
          "name": "encryptedValueThreshold",
          "type": "bytes32"
        },
        {
          "internalType": "externalEuint32",
          "name": "encryptedRiskThreshold",
          "type": "bytes32"
        },
        {
          "internalType": "bytes[2]",
          "name": "proofs",
          "type": "bytes[2]"
        }
      ],
      "name": "setThresholds",
      "outputs": [],
      "stateMutability": "nonpayable",
      "type": "function"
    },
    {
      "inputs": [
        {
          "internalType": "externalEuint32[]",
          "name": "encryptedBalances",
          "type": "bytes32[]"
        },
        {
          "internalType": "externalEuint32[]",
          "name": "encryptedPrices",
          "type": "bytes32[]"
        },
        {
          "internalType": "bytes[]",
          "name": "proofs",
          "type": "bytes[]"
        },
        {
          "internalType": "uint8",
          "name": "assetCount",
          "type": "uint8"
        }
      ],
      "name": "submitPortfolio",
      "outputs": [],
      "stateMutability": "nonpayable",
      "type": "function"
    },
    {
      "inputs": [
        {
          "internalType": "address",
          "name": "",
          "type": "address"
        }
      ],
      "name": "thresholds",
      "outputs": [
        {
          "internalType": "euint32",
          "name": "valueThreshold",
          "type": "bytes32"
        },
        {
          "internalType": "euint32",
          "name": "riskThreshold",
          "type": "bytes32"
        },
        {
          "internalType": "bool",
          "name": "isSet",
          "type": "bool"
        }
      ],
      "stateMutability": "view",
      "type": "function"
    }
  ],
  "transactionHash": "0x675677efda9cbc80fd75a85ca7b656c4bf27917fd0aded457ecf4c30b326a558",
  "args": [],
  "numDeployments": 2,
  "solcInputHash": "45575be4068b6f60920446d63575e555",
  "bytecode": "0x608060405234801561000f575f5ffd5b506100c461001b6100c9565b80517f9e7b61f58c47dc699ac88507c4f5bb9f121c03808c5676a8078fe583e464970080546001600160a01b03199081166001600160a01b039384161790915560208301517f9e7b61f58c47dc699ac88507c4f5bb9f121c03808c5676a8078fe583e46497018054831691841691909117905560408301517f9e7b61f58c47dc699ac88507c4f5bb9f121c03808c5676a8078fe583e46497028054909216921691909117905550565b610238565b604080516060810182525f808252602082018190529181019190915246600103610122575060408051606080820183525f8083526020808401829052928401819052835191820184528082529181018290529182015290565b4662aa36a7036101a1575060408051606080820183525f8083526020808401829052928401528251908101835273f0ffdc93b7e186bc2f8cb3daa75d86d1930a433d81527392c920834ec8941d2c77d188936e1f7a6f49c1279181019190915273be0e383937d564d7ff0bc3b46c51f0bf8d5c311a9181019190915290565b46617a690361021f575060408051606080820183525f8083526020808401829052928401528251908101835273f0ffdc93b7e186bc2f8cb3daa75d86d1930a433d81527392c920834ec8941d2c77d188936e1f7a6f49c1279181019190915273be0e383937d564d7ff0bc3b46c51f0bf8d5c311a9181019190915290565b6040516373cac13b60e01b815260040160405180910390fd5b611b62806102455f395ff3fe608060405234801561000f575f5ffd5b50600436106100da575f3560e01c80637baab3da11610088578063a06101d011610063578063a06101d014610228578063b720cff514610230578063c1b761211461025e578063dd7e37d614610289575f5ffd5b80637baab3da1461018b5780638927b030146101d35780639df5f6bd146101db575f5ffd5b806355e4d183116100b857806355e4d1831461013c5780635ac61e751461015e57806376b1d08f14610171575f5ffd5b806306d65ddd146100de57806344a19683146101045780634bfee58614610119575b5f5ffd5b6100f16100ec3660046117ce565b6102b7565b6040519081526020015b60405180910390f35b61011761011236600461183a565b610506565b005b61012c61012736600461183a565b6105a9565b60405190151581526020016100fb565b61012c61014a36600461188c565b60026020525f908152604090205460ff1681565b61011761016c3660046118b2565b61073f565b610179600a81565b60405160ff90911681526020016100fb565b6101ba61019936600461188c565b5f602081905290815260409020601481015460159091015460ff9091169082565b6040805160ff90931683526020830191909152016100fb565b6100f16109fd565b61020b6101e936600461188c565b600160208190525f918252604090912080549181015460029091015460ff1683565b6040805193845260208401929092521515908201526060016100fb565b6100f1610a0b565b61024361023e366004611969565b610af4565b604080519384526020840192909252908201526060016100fb565b61012c61026c36600461188c565b6001600160a01b03165f9081526002602052604090205460ff1690565b61017961029736600461188c565b6001600160a01b03165f9081526020819052604090206014015460ff1690565b335f908152602081905260408120601481015460ff1661031e5760405162461bcd60e51b815260206004820152601960248201527f506f7274666f6c696f206e6f7420696e697469616c697a65640000000000000060448201526064015b60405180910390fd5b601481015460ff1685146103745760405162461bcd60e51b815260206004820181905260248201527f566f6c6174696c697479206172726179206c656e677468206d69736d617463686044820152606401610315565b601481015460ff1683146103ca5760405162461bcd60e51b815260206004820152601b60248201527f50726f6f66206172726179206c656e677468206d69736d6174636800000000006044820152606401610315565b5f6103d45f611112565b90505f5b601483015460ff90811690821610156104e6575f61046b89898460ff16818110610404576104046119ee565b9050602002013588888560ff16818110610420576104206119ee565b90506020028101906104329190611a02565b8080601f0160208091040260200160405190810160405280939291908181526020018383808284375f9201919091525061112a92505050565b90505f6104a78560ff8516600a8110610486576104866119ee565b015486600a018560ff16600a81106104a0576104a06119ee565b015461113e565b90505f6104b4828461113e565b90506104c0858261116c565b94506104cb8361119a565b506104d683336111a9565b5050600190920191506103d89050565b506104f08161119a565b506104fb81336111a9565b509695505050505050565b5f61051e8483835b6020028101906104329190611a02565b90505f61052d8484600161050e565b6040805160608101825284815260208082018481526001838501818152335f908152938290529490922092518355519082015590516002909101805460ff191691151591909117905590506105818261119a565b5061058c82336111a9565b506105968161119a565b506105a181336111a9565b505050505050565b335f908152600160205260408120600281015460ff1661060b5760405162461bcd60e51b815260206004820152601260248201527f5468726573686f6c6473206e6f742073657400000000000000000000000000006044820152606401610315565b5f61061786858361050e565b90505f6106268686600161050e565b90505f61063683855f01546111bb565b90505f6106478386600101546111bb565b90505f61065483836111e9565b905061065f8361119a565b5061066a83336111a9565b506106748261119a565b5061067f82336111a9565b506106898161119a565b5061069481336111a9565b5061069e8561119a565b506106a985336111a9565b506106b38461119a565b506106be84336111a9565b50336001600160a01b03167ffea48d3554919f717e66314bee4ae8af5d5770d7fa1f01e111bfc23df18d008f604051610728906020808252600e908201527f434845434b5f5245515549524544000000000000000000000000000000000000604082015260600190565b60405180910390a2505f9998505050505050505050565b5f8160ff161180156107555750600a60ff821611155b6107a15760405162461bcd60e51b815260206004820152601360248201527f496e76616c696420617373657420636f756e74000000000000000000000000006044820152606401610315565b60ff811686146107f35760405162461bcd60e51b815260206004820152601d60248201527f42616c616e6365206172726179206c656e677468206d69736d617463680000006044820152606401610315565b60ff811684146108455760405162461bcd60e51b815260206004820152601b60248201527f5072696365206172726179206c656e677468206d69736d6174636800000000006044820152606401610315565b610850816002611a59565b60ff1682146108a15760405162461bcd60e51b815260206004820152601b60248201527f50726f6f66206172726179206c656e677468206d69736d6174636800000000006044820152606401610315565b335f90815260208190526040812060148101805460ff191660ff8516179055426015820155905b8260ff168160ff1610156109bd575f6109178a8a8460ff168181106108ef576108ef6119ee565b9050602002013587878560026109059190611a59565b60ff16818110610420576104206119ee565b90505f61095389898560ff16818110610932576109326119ee565b9050602002013588888660026109489190611a59565b610905906001611a75565b9050818460ff8516600a811061096b5761096b6119ee565b015580600a8086019060ff8616908110610987576109876119ee565b01556109928261119a565b5061099d82336111a9565b506109a78161119a565b506109b281336111a9565b5050506001016108c8565b5060405142815233907ffcfa0761dab6873023e04c2d8e99cefdc3d64ee860c8bdf9742211179e723bed9060200160405180910390a25050505050505050565b5f610a06611217565b905090565b335f908152602081905260408120601481015460ff16610a6d5760405162461bcd60e51b815260206004820152601960248201527f506f7274666f6c696f206e6f7420696e697469616c697a6564000000000000006044820152606401610315565b5f610a775f611112565b90505f5b601483015460ff9081169082161015610ad8575f610ac18460ff8416600a8110610aa757610aa76119ee565b015485600a018460ff16600a81106104a0576104a06119ee565b9050610acd838261116c565b925050600101610a7b565b50610ae28161119a565b50610aed81336111a9565b5092915050565b335f90815260208190526040812060148101548291829160ff16610b5a5760405162461bcd60e51b815260206004820152601960248201527f506f7274666f6c696f206e6f7420696e697469616c697a6564000000000000006044820152606401610315565b5f610b645f611112565b90505f8a6002811115610b7957610b79611a8e565b03610cd457601482015460ff168814610bde5760405162461bcd60e51b815260206004820152602160248201527f53686f636b207072696365206172726179206c656e677468206d69736d6174636044820152600d60fb1b6064820152608401610315565b601482015460ff168614610c345760405162461bcd60e51b815260206004820152601b60248201527f50726f6f66206172726179206c656e677468206d69736d6174636800000000006044820152606401610315565b5f5b601483015460ff9081169082161015610cce575f610c7e8b8b8460ff16818110610c6257610c626119ee565b905060200201358a8a8560ff16818110610420576104206119ee565b90505f610ca18560ff8516600a8110610c9957610c996119ee565b01548361113e565b9050610cad848261116c565b9350610cb88261119a565b50610cc382336111a9565b505050600101610c36565b50610f97565b60018a6002811115610ce857610ce8611a8e565b03610e1957601482015460ff168814610d4d5760405162461bcd60e51b815260206004820152602160248201527f53686f636b207072696365206172726179206c656e677468206d69736d6174636044820152600d60fb1b6064820152608401610315565b601482015460ff168614610da35760405162461bcd60e51b815260206004820152601b60248201527f50726f6f66206172726179206c656e677468206d69736d6174636800000000006044820152606401610315565b5f5b601483015460ff9081169082161015610cce575f610dd18b8b8460ff16818110610c6257610c626119ee565b90505f610dec8560ff8516600a8110610c9957610c996119ee565b9050610df8848261116c565b9350610e038261119a565b50610e0e82336111a9565b505050600101610da5565b60028a6002811115610e2d57610e2d611a8e565b03610f97576001881015610e835760405162461bcd60e51b815260206004820152601d60248201527f4e656564206174206c65617374206f6e652073686f636b2070726963650000006044820152606401610315565b6001861015610ed45760405162461bcd60e51b815260206004820152601760248201527f4e656564206174206c65617374206f6e652070726f6f660000000000000000006044820152606401610315565b5f610f038a8a5f818110610eea57610eea6119ee565b9050602002013589895f818110610420576104206119ee565b90505f610f108482610c99565b9050610f1c838261116c565b9250610f278261119a565b50610f3282336111a9565b5060015b601485015460ff9081169082161015610f93575f610f7c8660ff8416600a8110610f6257610f626119ee565b015487600a018460ff16600a81106104a0576104a06119ee565b9050610f88858261116c565b945050600101610f36565b5050505b5f610fa15f611112565b90505f5b601484015460ff9081169082161015611002575f610feb8560ff8416600a8110610fd157610fd16119ee565b015486600a018460ff16600a81106104a0576104a06119ee565b9050610ff7838261116c565b925050600101610fa5565b505f808c600281111561101757611017611a8e565b036110365761102f8261102a601b611112565b61113e565b905061106e565b60018c600281111561104a5761104a611a8e565b0361105d5761102f8261102a602d611112565b61106b8261102a6017611112565b90505b80955061107f8661102a600c611112565b945061108a8361119a565b5061109583336111a9565b5061109f8661119a565b506110aa86336111a9565b506110b48561119a565b506110bf85336111a9565b50336001600160a01b03167f32d3a1ff31a8e988013de24638bb5258164d27c10452af1252a3a015913042fc8d6040516110f99190611aa2565b60405180910390a2509094505050955095509592505050565b5f6111248263ffffffff16600461124b565b92915050565b5f61113783836004611308565b9392505050565b5f826111505761114d5f611112565b92505b816111615761115e5f611112565b91505b61113783835f611428565b5f8261117e5761117b5f611112565b92505b8161118f5761118c5f611112565b91505b61113783835f61150b565b5f6111a582306115a8565b5090565b5f6111b483836115a8565b5090919050565b5f826111cd576111ca5f611112565b92505b816111de576111db5f611112565b91505b61113783835f611631565b5f826111fb576111f85f6116ce565b92505b8161120c576112095f6116ce565b91505b61113783835f6116e9565b5f466001036112265750600190565b4662aa36a703611237575061271190565b46617a690361124657505f1990565b505f90565b7f9e7b61f58c47dc699ac88507c4f5bb9f121c03808c5676a8078fe583e464970154604051639cd07acb60e01b81525f917f9e7b61f58c47dc699ac88507c4f5bb9f121c03808c5676a8078fe583e4649700916001600160a01b0390911690639cd07acb906112c09087908790600401611ad0565b6020604051808303815f875af11580156112dc573d5f5f3e3d5ffd5b505050506040513d601f19601f820116820180604052508101906113009190611ae4565b949350505050565b7f9e7b61f58c47dc699ac88507c4f5bb9f121c03808c5676a8078fe583e46497015460405163045fc19560e11b81525f917f9e7b61f58c47dc699ac88507c4f5bb9f121c03808c5676a8078fe583e4649700916001600160a01b03909116906308bf832a90611381908890339089908990600401611afb565b6020604051808303815f875af115801561139d573d5f5f3e3d5ffd5b505050506040513d601f19601f820116820180604052508101906113c19190611ae4565b8154604051630f8e573b60e21b8152600481018390523360248201529193506001600160a01b031690633e395cec906044015f604051808303815f87803b15801561140a575f5ffd5b505af115801561141c573d5f5f3e3d5ffd5b50505050509392505050565b5f5f821561143b5750600160f81b61143e565b505f5b7f9e7b61f58c47dc699ac88507c4f5bb9f121c03808c5676a8078fe583e464970154604051630afe14ad60e31b815260048101879052602481018690526001600160f81b0319831660448201527f9e7b61f58c47dc699ac88507c4f5bb9f121c03808c5676a8078fe583e4649700916001600160a01b0316906357f0a568906064015b6020604051808303815f875af11580156114dd573d5f5f3e3d5ffd5b505050506040513d601f19601f820116820180604052508101906115019190611ae4565b9695505050505050565b5f5f821561151e5750600160f81b611521565b505f5b7f9e7b61f58c47dc699ac88507c4f5bb9f121c03808c5676a8078fe583e46497015460405163022f65e760e31b815260048101879052602481018690526001600160f81b0319831660448201527f9e7b61f58c47dc699ac88507c4f5bb9f121c03808c5676a8078fe583e4649700916001600160a01b03169063117b2f38906064016114c1565b5f7f9e7b61f58c47dc699ac88507c4f5bb9f121c03808c5676a8078fe583e46497008054604051635ca4b5b160e11b8152600481018690526001600160a01b03858116602483015292935091169063b9496b62906044015f604051808303815f87803b158015611616575f5ffd5b505af1158015611628573d5f5f3e3d5ffd5b50505050505050565b5f5f82156116445750600160f81b611647565b505f5b7f9e7b61f58c47dc699ac88507c4f5bb9f121c03808c5676a8078fe583e4649701546040516385362ee760e01b815260048101879052602481018690526001600160f81b0319831660448201527f9e7b61f58c47dc699ac88507c4f5bb9f121c03808c5676a8078fe583e4649700916001600160a01b0316906385362ee7906064016114c1565b5f611124826116dd575f6116e0565b60015b60ff165f61124b565b5f5f82156116fc5750600160f81b6116ff565b505f5b7f9e7b61f58c47dc699ac88507c4f5bb9f121c03808c5676a8078fe583e4649701546040516363a2db2960e01b815260048101879052602481018690526001600160f81b0319831660448201527f9e7b61f58c47dc699ac88507c4f5bb9f121c03808c5676a8078fe583e4649700916001600160a01b0316906363a2db29906064016114c1565b5f5f83601f840112611796575f5ffd5b50813567ffffffffffffffff8111156117ad575f5ffd5b6020830191508360208260051b85010111156117c7575f5ffd5b9250929050565b5f5f5f5f604085870312156117e1575f5ffd5b843567ffffffffffffffff8111156117f7575f5ffd5b61180387828801611786565b909550935050602085013567ffffffffffffffff811115611822575f5ffd5b61182e87828801611786565b95989497509550505050565b5f5f5f6060848603121561184c575f5ffd5b8335925060208401359150604084013567ffffffffffffffff811115611870575f5ffd5b840160408101861015611881575f5ffd5b809150509250925092565b5f6020828403121561189c575f5ffd5b81356001600160a01b0381168114611137575f5ffd5b5f5f5f5f5f5f5f6080888a0312156118c8575f5ffd5b873567ffffffffffffffff8111156118de575f5ffd5b6118ea8a828b01611786565b909850965050602088013567ffffffffffffffff811115611909575f5ffd5b6119158a828b01611786565b909650945050604088013567ffffffffffffffff811115611934575f5ffd5b6119408a828b01611786565b909450925050606088013560ff81168114611959575f5ffd5b8091505092959891949750929550565b5f5f5f5f5f6060868803121561197d575f5ffd5b85356003811061198b575f5ffd5b9450602086013567ffffffffffffffff8111156119a6575f5ffd5b6119b288828901611786565b909550935050604086013567ffffffffffffffff8111156119d1575f5ffd5b6119dd88828901611786565b969995985093965092949392505050565b634e487b7160e01b5f52603260045260245ffd5b5f5f8335601e19843603018112611a17575f5ffd5b83018035915067ffffffffffffffff821115611a31575f5ffd5b6020019150368190038213156117c7575f5ffd5b634e487b7160e01b5f52601160045260245ffd5b60ff8181168382160290811690818114610aed57610aed611a45565b60ff818116838216019081111561112457611124611a45565b634e487b7160e01b5f52602160045260245ffd5b6020810160038310611ab657611ab6611a8e565b91905290565b60548110611acc57611acc611a8e565b9052565b828152604081016111376020830184611abc565b5f60208284031215611af4575f5ffd5b5051919050565b8481526001600160a01b0384166020820152608060408201525f8351806080840152806020860160a085015e5f60a0828501015260a0601f19601f830116840101915050611b4c6060830184611abc565b9594505050505056fea164736f6c634300081b000a",
  "devdoc": {
    "details": "All asset data, calculations, and results are encrypted using FHE",
    "kind": "dev",
    "methods": {
      "calculateRiskExposure(bytes32[],bytes[])": {
        "details": "Risk exposure = weighted sum of (balance * price * volatility)",
        "params": {
          "encryptedVolatilities": "Array of encrypted volatility values",
          "proofs": "Array of input proofs"
        },
        "returns": {
          "_0": "Encrypted risk exposure value"
        }
      },
      "calculateTotalValue()": {
        "returns": {
          "_0": "Encrypted total value"
        }
      },
      "checkThresholds(bytes32,bytes32,bytes[2])": {
        "details": "This function performs encrypted comparisons",
        "params": {
          "encryptedRiskExposure": "Encrypted risk exposure to compare",
          "encryptedTotalValue": "Encrypted total value to compare",
          "proofs": "Array of input proofs [valueProof, riskProof]"
        },
        "returns": {
          "alertTriggered": "Whether any alert was triggered"
        }
      },
      "getAlertStatus(address)": {
        "returns": {
          "_0": "Whether alerts are active"
        }
      },
      "getAssetCount(address)": {
        "returns": {
          "_0": "Number of assets in portfolio"
        }
      },
      "runStressTest(uint8,bytes32[],bytes[])": {
        "params": {
          "encryptedShockPrices": "Array of encrypted shock prices (if SINGLE_ASSET_CRASH, only first price is used)",
          "proofs": "Array of input proofs",
          "scenario": "Stress scenario type"
        },
        "returns": {
          "encryptedCVaR": "Encrypted Conditional Value at Risk",
          "encryptedStressValue": "Encrypted stress test result value",
          "encryptedVaR": "Encrypted Value at Risk"
        }
      },
      "setThresholds(bytes32,bytes32,bytes[2])": {
        "params": {
          "encryptedRiskThreshold": "Encrypted risk threshold",
          "encryptedValueThreshold": "Encrypted value threshold",
          "proofs": "Array of input proofs [valueProof, riskProof]"
        }
      },
      "submitPortfolio(bytes32[],bytes32[],bytes[],uint8)": {
        "params": {
          "assetCount": "Number of assets (must match array lengths)",
          "encryptedBalances": "Array of encrypted balances",
          "encryptedPrices": "Array of encrypted prices",
          "proofs": "Array of input proofs"
        }
      }
    },
    "title": "FHE Multi-Asset Analyzer",
    "version": 1
  },
  "userdoc": {
    "errors": {
      "ZamaProtocolUnsupported()": [
        {
          "notice": "Returned if the Zama protocol is not supported on the current chain"
        }
      ]
    },
    "kind": "user",
    "methods": {
      "calculateRiskExposure(bytes32[],bytes[])": {
        "notice": "Calculate encrypted risk exposure"
      },
      "calculateTotalValue()": {
        "notice": "Calculate encrypted total portfolio value"
      },
      "checkThresholds(bytes32,bytes32,bytes[2])": {
        "notice": "Check thresholds and trigger alerts if exceeded"
      },
      "getAlertStatus(address)": {
        "notice": "Get alert status for user"
      },
      "getAssetCount(address)": {
        "notice": "Get user portfolio asset count"
      },
      "runStressTest(uint8,bytes32[],bytes[])": {
        "notice": "Run stress test scenario"
      },
      "setThresholds(bytes32,bytes32,bytes[2])": {
        "notice": "Set encrypted threshold values for alerts"
      },
      "submitPortfolio(bytes32[],bytes32[],bytes[],uint8)": {
        "notice": "Submit encrypted asset balances and prices"
      }
    },
    "notice": "A privacy-preserving multi-asset portfolio analyzer using FHEVM",
    "version": 1
  },
  "storageLayout": {
    "storage": [
      {
        "astId": 39220,
        "contract": "contracts/MultiAssetAnalyzer.sol:MultiAssetAnalyzer",
        "label": "portfolios",
        "offset": 0,
        "slot": "0",
        "type": "t_mapping(t_address,t_struct(UserPortfolio)39202_storage)"
      },
      {
        "astId": 39225,
        "contract": "contracts/MultiAssetAnalyzer.sol:MultiAssetAnalyzer",
        "label": "thresholds",
        "offset": 0,
        "slot": "1",
        "type": "t_mapping(t_address,t_struct(UserThresholds)39211_storage)"
      },
      {
        "astId": 39229,
        "contract": "contracts/MultiAssetAnalyzer.sol:MultiAssetAnalyzer",
        "label": "alerts",
        "offset": 0,
        "slot": "2",
        "type": "t_mapping(t_address,t_bool)"
      }
    ],
    "types": {
      "t_address": {
        "encoding": "inplace",
        "label": "address",
        "numberOfBytes": "20"
      },
      "t_array(t_userDefinedValueType(euint32)40409)10_storage": {
        "base": "t_userDefinedValueType(euint32)40409",
        "encoding": "inplace",
        "label": "euint32[10]",
        "numberOfBytes": "320"
      },
      "t_bool": {
        "encoding": "inplace",
        "label": "bool",
        "numberOfBytes": "1"
      },
      "t_mapping(t_address,t_bool)": {
        "encoding": "mapping",
        "key": "t_address",
        "label": "mapping(address => bool)",
        "numberOfBytes": "32",
        "value": "t_bool"
      },
      "t_mapping(t_address,t_struct(UserPortfolio)39202_storage)": {
        "encoding": "mapping",
        "key": "t_address",
        "label": "mapping(address => struct MultiAssetAnalyzer.UserPortfolio)",
        "numberOfBytes": "32",
        "value": "t_struct(UserPortfolio)39202_storage"
      },
      "t_mapping(t_address,t_struct(UserThresholds)39211_storage)": {
        "encoding": "mapping",
        "key": "t_address",
        "label": "mapping(address => struct MultiAssetAnalyzer.UserThresholds)",
        "numberOfBytes": "32",
        "value": "t_struct(UserThresholds)39211_storage"
      },
      "t_struct(UserPortfolio)39202_storage": {
        "encoding": "inplace",
        "label": "struct MultiAssetAnalyzer.UserPortfolio",
        "members": [
          {
            "astId": 39192,
            "contract": "contracts/MultiAssetAnalyzer.sol:MultiAssetAnalyzer",
            "label": "balances",
            "offset": 0,
            "slot": "0",
            "type": "t_array(t_userDefinedValueType(euint32)40409)10_storage"
          },
          {
            "astId": 39197,
            "contract": "contracts/MultiAssetAnalyzer.sol:MultiAssetAnalyzer",
            "label": "prices",
            "offset": 0,
            "slot": "10",
            "type": "t_array(t_userDefinedValueType(euint32)40409)10_storage"
          },
          {
            "astId": 39199,
            "contract": "contracts/MultiAssetAnalyzer.sol:MultiAssetAnalyzer",
            "label": "assetCount",
            "offset": 0,
            "slot": "20",
            "type": "t_uint8"
          },
          {
            "astId": 39201,
            "contract": "contracts/MultiAssetAnalyzer.sol:MultiAssetAnalyzer",
            "label": "lastUpdate",
            "offset": 0,
            "slot": "21",
            "type": "t_uint256"
          }
        ],
        "numberOfBytes": "704"
      },
      "t_struct(UserThresholds)39211_storage": {
        "encoding": "inplace",
        "label": "struct MultiAssetAnalyzer.UserThresholds",
        "members": [
          {
            "astId": 39205,
            "contract": "contracts/MultiAssetAnalyzer.sol:MultiAssetAnalyzer",
            "label": "valueThreshold",
            "offset": 0,
            "slot": "0",
            "type": "t_userDefinedValueType(euint32)40409"
          },
          {
            "astId": 39208,
            "contract": "contracts/MultiAssetAnalyzer.sol:MultiAssetAnalyzer",
            "label": "riskThreshold",
            "offset": 0,
            "slot": "1",
            "type": "t_userDefinedValueType(euint32)40409"
          },
          {
            "astId": 39210,
            "contract": "contracts/MultiAssetAnalyzer.sol:MultiAssetAnalyzer",
            "label": "isSet",
            "offset": 0,
            "slot": "2",
            "type": "t_bool"
          }
        ],
        "numberOfBytes": "96"
      },
      "t_uint256": {
        "encoding": "inplace",
        "label": "uint256",
        "numberOfBytes": "32"
      },
      "t_uint8": {
        "encoding": "inplace",
        "label": "uint8",
        "numberOfBytes": "1"
      },
      "t_userDefinedValueType(euint32)40409": {
        "encoding": "inplace",
        "label": "euint32",
        "numberOfBytes": "32"
      }
    }
  }
}